:020000040800F2
:1000000000800020DD020008DD100008E11000087B
:10001000E5100008E9100008ED10000800000000DD
:10002000000000000000000000000000F1100008C7
:10003000F510000800000000F9100008FD1000088D
:10004000110F0008110F0008110F0008110F000810
:10005000110F0008110F0008110F0008110F000800
:10006000110F0008110F0008110F0008110F0008F0
:10007000110F0008110F0008110F0008110F0008E0
:10008000110F0008110F0008110F000800000000F8
:10009000000000000000000000000000110F000838
:1000A000110F0008110F0008110F0008110F0008B0
:1000B000000000000000000000000000110F000818
:1000C000110F0008110F0008110F0008110F000890
:1000D000110F0008110F0008110F000800000000A8
:1000E000110F0008110F00080000000000000000C0
:1000F000000000000000000000000000110F0008D8
:100100000000000000000000110F000800000000C7
:100110000000000000000000110F000800000000B7
:10012000110F0008110F0008110F0008110F00082F
:10013000110F000800000000000000000000000097
:1001400000000000000000000000000000000000AF
:10015000110F0008110F0008110F0008110F0008FF
:10016000000000000000000000000000000000008F
:10017000000000000000000000000000000000007F
:10018000110F0008110F000800000000000000001F
:1001900000000000110F0008000000000000000037
:1001A000000000000000000000000000000000004F
:1001B000000000000000000000000000110F000817
:1001C000110F0008110F000800B583B000F008FE01
:1001D000304B314A1360314A1360314B314A03E0EE
:1001E00011681960043304322F498B42F8D32A4B2B
:1001F0001A682E4B9A4204D1284B1A682C4B9A420B
:1002000000D0FEE7234B2B4A13602B4A13602B4B85
:1002100002E000221A600433294A9342F9D3254BA5
:100220001B6813B9244B1B6803B1FEE700F0E4FD23
:1002300001A8694600F07CFD224C234B1C1BA41036
:10024000002504E01F4B53F8253098470135AC4298
:10025000F8DC1E4C1E4B1C1BA410002504E01B4B9D
:1002600053F8253098470135AC42F8DC01980099E5
:1002700000F008FF0546174C174B1C1BA41004E0A8
:10028000013C144B53F824309847002CF8DC2846E6
:1002900000F02AFDBABADECA000000207400002077
:1002A00000000020041B000878000020785634125B
:1002B0003254769878000020280100207800002031
:1002C0002C01002034040008340400083404000821
:1002D00034040008340400083404000808B5FFF7AB
:1002E00073FF00BF00BEFEE71EF0040F0CBFEFF36C
:1002F0000880EFF309807146414A10472DE9F0412B
:1003000082B004468846134B5E6B9D6B9F6A1B6BE5
:1003100013F0020F0DD00F4BDB6A002B09DA4BF6FE
:10032000AB6100F0E5FD20B14FF00042094BDA620D
:100330000CE0094800F004FDCDF800802046394665
:1003400032462B4600F05CFD00BEFEE702B0BDE881
:10035000F08100BF00ED00E0901A000800BEFEE74B
:100360001EF0040F0CBFEFF30880EFF30980714615
:10037000244A10472DE9F04182B007468846084BD1
:100380005D6B9C6B9E6A074800F0DAFCCDF800803C
:10039000384631462A46234600F032FD00BEFEE7CD
:1003A00000ED00E0A01A00081EF0040F0CBFEFF3F0
:1003B0000880EFF309807146134A10472DE9F04198
:1003C00082B007468846084B5D6B9C6B9E6A074867
:1003D00000F0B6FCCDF80080384631462A46234668
:1003E00000F00EFD00BEFEE700ED00E0AC1A0008D4
:1003F00000BEFEE700BEFEE700BEFEE7704700005D
:0C040000FD02000875030008BD030008A1
:10040C00041B00080000002078000020041B0008DA
:10041C000000001000000010780000202C010020CB
:08042C000000001000000010A8
:10043400704700BF10B50446074B1B680748A0FB74
:100444000330800900F086F84FF0FF302146002287
:1004540000F04EF8002010BD0C000020D34D6210B7
:1004640008B50B4B1A6842F400721A601A6842F419
:1004740080621A601A6842F480721A60032000F0E5
:1004840025F80F20FFF7D6FFFFF7D2FF002008BDA5
:10049400003C0240024A136801331360704700BFF6
:1004A40020010020014B1868704700BF2001002084
:1004B40010B582B00190FFF7F5FF0446FFF7F2FF95
:1004C400001B019B9842F9D302B010BD00F0070055
:1004D400064AD36823F4E0631B041B0C43EA0020A0
:1004E40040F0BF6040F40030D060704700ED00E0A1
:1004F40030B4164BDC68C4F30224C4F10705042DA0
:1005040028BF0425231D062B01D9033C00E0002449
:10051400012303FA05F5013D2940A140A340013B15
:100524001A400A43002806DA00F00F001201D2B282
:10053400074B1A5407E01201D2B200F1604000F5F3
:10054400614080F8002330BC704700BF00ED00E03C
:1005540014ED00E00138B0F1807F0AD2064B5860F8
:10056400F021064A82F823100020986007221A60BE
:1005740070470120704700BF10E000E000ED00E08C
:100584002DE9F04182B00023B8E09C4601229A4054
:100594000C681440944240F0B0804D68022D01D0A4
:1005A400122D14D14FEAD30E0EF1080E50F82E700E
:1005B40003F007084FEA88080F2505FA08F527EA2B
:1005C40005060D6905FA08F5354340F82E5006680E
:1005D4004FEA430E032505FA0EF5ED4305EA060737
:1005E4004E6806F0030606FA0EF63E4306604E68B1
:1005F400771E012F03D9112E01D0122E12D1866835
:1006040005EA0607CE6806FA0EF63E43866047689A
:1006140027EA02074E68C6F3001202FA0CF646EA0D
:1006240007024260C2682A408D6805FA0EF5154338
:10063400C5604A6812F0805F5FD000220192324A9E
:10064400556C45F480455564526C02F48042019225
:10065400019A9F08BD1C2D4A52F8256003F0030E31
:100664004FEA8E0E0F2202FA0EF226EA0205284AFB
:1006740090420DD002F58062904207D002F580626C
:10068400904201D1022204E0072202E0012200E0AC
:10069400002202FA0EF22A4302371C4D45F82720A5
:1006A4001C4A1568E24302EA05064F6817F4803FC6
:1006B40001D044EA0506174D2E606D6802EA05066E
:1006C4004F6817F4003F01D044EA0506114D6E60EF
:1006D400AD6802EA05064F6817F4801F01D044EAAA
:1006E40005060C4DAE60ED682A404E6816F4001FF6
:1006F40001D044EA0502074CE26001330F2B7FF678
:1007040044AF02B0BDE8F081003802400038014037
:1007140000000240003C0140436959404161704778
:10072400214B9B6803F00C03042B3AD0082B01D017
:100734001E4870471C4B586800F03F005B6813F478
:10074400800F0FD01A4BB3FBF0F3174A506847F6EB
:10075400C072104092FAA2F2B2FA82F2D04000FBC8
:1007640003F30EE0114BB3FBF0F30F4A506847F666
:10077400C072104092FAA2F2B2FA82F2D04000FBA8
:1007840003F3094A506800F440304FF4403292FABF
:10079400A2F2B2FA82F2D04001304000B3FBF0F092
:1007A40070470348704700BF003802400024F4003B
:1007B40000127A0070B504460D46664B1B6803F0C0
:1007C4000F038B4208D2CBB2624A1370136803F052
:1007D4000F038B4240F0AB80236813F0020F06D066
:1007E4005D498B6823F0F002A36813438B60236890
:1007F40013F0010F60D06268012A05D1564B1B68C3
:1008040013F4003F0FD194E0931E012B05D8524BF3
:100814001B6813F0007F06D18DE04F4B1B6813F06B
:10082400020F00F08A804C498B6823F003031343C2
:100834008B60FFF737FE06466368012B0ED106E096
:10084400FFF730FE801B41F28833984277D8424B41
:100854009B6803F00C03042BF2D12DE0022B0ED184
:1008640006E0FFF71FFE801B41F28833984268D8E8
:10087400394B9B6803F00C03082BF2D11CE0032BCB
:1008840015D106E0FFF70EFE801B41F28833984233
:1008940059D8314B9B6803F00C030C2BF2D10BE0BD
:1008A400FFF700FE801B41F2883398424DD82A4B53
:1008B4009B6813F00C0FF3D1264B1B6803F00F0356
:1008C400AB4207D9EAB2234B1A701B6803F00F033B
:1008D400AB423CD1236813F0040F06D01E498B6849
:1008E40023F4E052E36813438B60236813F0080F8A
:1008F40007D0194A936823F46043216943EAC1038A
:100904009360FFF70DFF144B9B6803F0F003F02294
:1009140092FAA2F2B2FA82F2D340104AD35CD840DF
:100924000F4B18600F20FFF785FD002070BD0120DC
:1009340070BD012070BD012070BD012070BD032079
:1009440070BD032070BD032070BD032070BD012065
:1009540070BD00BF003C024000380240641900082A
:100964000C00002030B583B00446036813F0010F77
:100974003CD0B34B9B6803F00C03042B0AD0B04B60
:100984009B6803F00C03082B0CD1AD4B5B6813F48C
:10099400800F07D0AA4B1B6813F4003F26D063686E
:1009A40023BB7AE12279A74B1A7063687BB1FFF706
:1009B40079FD054605E0FFF775FD401B642800F24C
:1009C4006E819F4B1B6813F4003FF4D00EE0FFF7D9
:1009D40069FD054605E0FFF765FD401B642800F24C
:1009E4006081974B1B6813F4003FF4D1236813F024
:1009F400020F5AD0924B9B6813F00C0F0AD0904B05
:100A04009B6803F00C03082B1BD18D4B5B6813F41C
:100A1400800F16D18A4B1B6813F0020F03D0E368D2
:100A2400012B40F040818648036823F0F8012369D4
:100A3400F82292FAA2F2B2FA82F293400B430360D4
:100A440033E0E368FBB101227F4B1A60FFF72AFD14
:100A5400054605E0FFF726FD401B022800F225812C
:100A6400774B1B6813F0020FF4D07548036823F02A
:100A7400F8012369F82292FAA2F2B2FA82F29340C0
:100A84000B43036011E000226F4B1A60FFF70AFD6D
:100A9400054605E0FFF706FD401B022800F207812A
:100AA400674B1B6813F0020FF4D1236813F0080F8F
:100AB40026D0636993B10122644B1A60FFF7F2FCFC
:100AC400054605E0FFF7EEFC401B022800F2F1802A
:100AD4005B4B5B6F13F0020FF4D011E000225B4B11
:100AE4001A60FFF7DFFC054605E0FFF7DBFC401B5F
:100AF400022800F2E080524B5B6F13F0020FF4D136
:100B0400236813F0040F47D0002301934C4B1A6C55
:100B140042F080521A641B6C03F080530193019BD2
:100B24004B4A136843F480731360FFF7BBFC05461C
:100B340005E0FFF7B7FC401B022800F2BE80444BDF
:100B44001B6813F4807FF4D0227A424B1A70A36896
:100B54008BB1FFF7A7FC054607E0FFF7A3FC401B9A
:100B640041F28833984200F2AA80354B1B6F13F090
:100B7400020FF2D010E0FFF795FC054607E0FFF7FF
:100B840091FC401B41F28833984200F29A802C4B2E
:100B94001B6F13F0020FF2D1A369002B00F09380B6
:100BA400274A926802F00C02082A00F08E80022B79
:100BB40060D10022284B1A60FFF774FC054605E05B
:100BC400FFF770FC401B022800F281801C4B1B685D
:100BD40013F0007FF4D1E269236A1A43636A47F68B
:100BE400C07191FAA1F1B1FA81F18B401A43A36A61
:100BF4005B08013B4FF4403191FAA1F1B1FA81F164
:100C04008B401343E26A4FF0706191FAA1F1B1FA9B
:100C140081F18A4043EA0201236B4FF0E04292FAE9
:100C2400A2F2B2FA82F203FA02F241EA0203044A9D
:100C340053600122084B1A60FFF734FC044612E0AB
:100C4400003802400238024000004742800E47420A
:100C5400007000407038024060004742FFF722FCF9
:100C6400001B022835D81D4B1B6813F0007FF5D0FC
:100C7400002031E000221A4B1A60FFF713FC0446EF
:100C840004E0FFF70FFC001B022824D8134B1B6859
:100C940013F0007FF5D100201EE001201CE00320AA
:100CA4001AE0032018E0012016E0032014E00320DA
:100CB40012E0032010E003200EE003200CE00320E8
:100CC4000AE0032008E0002006E0012004E00320FD
:100CD40002E0032000E0032003B030BD00380240EE
:100CE40060004742FEE700BF08B50D4B1B6813B90F
:100CF4000C4A0B4B1A600A4B1A68C31C23F00303FB
:100D0400134409498B4206D900F0FAF90C23036015
:100D14004FF0FF3008BD02490B60104608BD00BF0C
:100D24007C0000202C010020007C002001230360B3
:100D3400014B0B60704700BF040000200FB400B5E6
:100D440083B004AB53F8042B01930848802100F0CE
:100D540011FA011E03DD054800F03CF8014608467F
:100D640003B05DF804EB04B0704700BF84000020BA
:100D74002DE9F04385B004460F46435C13BB0425BC
:100D840028462146ABBE04461FE03546102E28BF38
:100D94001025002306E014F8011B04AA1A4402F8E3
:100DA400101C0133AB42F6D304AA1344002203F807
:100DB400102CE9464FF0040840464946ABBE804635
:100DC400761B00E00E46002EDFD1384605B0BDE8A4
:100DD400F08300BF08B5FFF7CBFF08BD08B500F0EE
:100DE40097F8024B024A9A6008BD00BF00ED00E08C
:100DF4000000000808B500F0ABF808BDF8B50446DB
:100E04000D4617461E462648FFF798FF25482168D9
:100E1400FFF794FF24486168FFF790FF2348A16817
:100E2400FFF78CFF2248E168FFF788FF214821691A
:100E3400FFF784FF20486169FFF780FF1F48A1691D
:100E4400FFF77CFF1E48E169FFF778FF1D48FFF7B5
:100E540075FF1D482946FFF771FF1C4CE16A1C48C9
:100E6400FFF76CFF216B1B48FFF768FFE16B1A4823
:100E7400FFF764FF15F0800F03D018483946FFF7D9
:100E84005DFF15F4004F03D015483146FFF756FFB8
:100E94001448FFF753FF14480699FFF74FFFF8BDB6
:100EA400741900088419000894190008A41900088A
:100EB400B4190008C4190008D4190008E41900087A
:100EC400F4190008041A0008101A000800ED00E0E4
:100ED400201A0008301A0008401A0008501A0008A6
:100EE400601A0008701A0008781A000883691A88C2
:100EF4008A4207D10268033A012A05D80233836182
:100F0400012070470020704700207047FEE7000072
:100F14000C4B1A6842F001021A60002199601A68A9
:100F240022F0847222F480321A60074A5A601A68E6
:100F340022F480221A60D9604FF00062034B9A6059
:100F4400704700BF003802401030002400ED00E07C
:100F5400224B9B6803F00C03042B07D0082B09D009
:100F6400002B2DD11E4A1F4B1A602CE01E4A1D4B2C
:100F74001A6028E0194B5A685B6803F03F0312F4C7
:100F8400800F09D0184AB2FBF3F2144B5B68C3F329
:100F9400881303FB02F208E0114AB2FBF3F30F4A91
:100FA4005168C1F3881101FB03F20C4B5B68C3F376
:100FB400014301335B00B2FBF3F30A4A136002E01E
:100FC400074A084B1A60054B9B68C3F30313074A8F
:100FD400D15C044A1368CB40136070470038024068
:100FE4000024F4000C00002040787D01BC1A0008A5
:100FF400FEE700BF00B595B0002200921E4B196CAD
:1010040041F0805119641B6C03F080530093009BE2
:1010140001921A4B196841F4404119601B6803F4AA
:1010240040430193019B0223029301210591102166
:101034000691089309920A91C8220B920C930722F5
:101044000D920E9302A8FFF78DFC08B1FFF7D0FFB5
:101054000F230F9302231093002311934FF4805214
:10106400129213930FA80321FFF7A4FB08B1FFF713
:10107400BFFF15B05DF804FB00380240007000406B
:1010840000B583B0FFF7ECF9FFF7B4FF0023019339
:101094000E4B1A6B42F001021A631B6B03F001033F
:1010A4000193019B0A4920230B6001234B608B6051
:1010B4000223CB600748FFF763FA06482021FFF7B5
:1010C4002BFB6420FFF7F4F9F7E700BF0038024078
:1010D4000401002000000240704700BFFEE700BF8B
:1010E400FEE700BFFEE700BFFEE700BF704700BF9A
:1010F400704700BF704700BF08B5FFF7CBF908BDC4
:10110400014B1868704700BF7000002010B5431EE3
:101114000A44914204D011F8014B03F8014FF8E757
:1011240010BD30B5141E9BB0054604DA8B23036052
:101134004FF0FF301CE04FF40272ADF80C2014BFE6
:1011440004F1FF322246029205924FF6FF7200919B
:101154000491ADF80E2069461A461E9B00F074F8FF
:10116400431CBCBF8B232B6014B1009B00221A705C
:101174001BB030BD73B50093054B06460D461446AF
:10118400186831462A462346FFF7CBFF02B070BDEC
:10119400700000202DE9F0478E68B34282460C4669
:1011A4009046994640D38A8912F4906F3AD02568C4
:1011B40009696F1A6569022305EB450595FBF3F58B
:1011C4007B1C4B449D4238BF1D4653050FD5294611
:1011D40000F030FB064698B121693A46FFF796FFC6
:1011E400A38923F4906343F08003A38113E02A4688
:1011F40000F076FB064670B95046216900F0D6FA35
:101204000C23CAF80030A38943F04003A3814FF0B4
:10121400FF30BDE8F087266165613E44ED1B266022
:10122400A5604E46B14500D24E463246206841463E
:1012340000F0A1FAA3689B1BA36023681E442660E8
:101244000020BDE8F08700002DE9F0439DB006467C
:1012540003938B891C060D4690460CD50B6953B934
:10126400402100F0E7FA2860286110B90C233360AC
:10127400CCE040236B610023099320238DF82930AF
:1012840030238DF82A3043461C4613F8012B1AB933
:10129400B4EB08090FD002E0252AF5D1F8E730466F
:1012A400294642464B46FFF775FF013000F0A980FE
:1012B400099B4B4409932378002B00F0A280002360
:1012C4004FF0FF3204930793059206938DF8533041
:1012D4001A9304F101084446DFF8489121784846FE
:1012E400052200F039FA08F10108049B30B1C9EB7A
:1012F40000000122824013430493ECE7D80644BF64
:1013040020228DF85320190744BF2B228DF8532037
:1013140022782A2A02D0079923460EE0039A111D47
:1013240012680391002ABBBF524243F002030792A2
:101334000792B8BF049301340AE01C4601332278B3
:10134400303A092A03D80A2000FB0121F5E7079166
:1013540023782E2B1AD163782A2B0AD1039B1A1DCA
:101364001B680392002BB8BF4FF0FF330234059380
:101374000CE0611C00220C4601312378303B092B20
:1013840003D80A2000FB0232F5E70592DFF89880C3
:1013940021784046032200F0DFF938B1049AC8EB03
:1013A40000004023834013430493013421781A48F6
:1013B4008DF82810062204F1010800F0CDF988B157
:1013C400164B33B9039B073323F007030833039306
:1013D40013E003AB0093304604A92A46104BAFF345
:1013E400008007E003AB0093304604A92A460C4B67
:1013F40000F092F8421C074603D0099B3B44099332
:1014040041E7AB895B0601D4099801E04FF0FF3056
:101414001DB0BDE8F08300BFD81A0008000000002A
:1014240099110008CE1A0008D41A00082DE9F843CF
:1014340091461F468A680B69DDF820809342B8BF45
:101444001346C9F8003091F8432006460C4612B101
:101454000133C9F800302368990642BFD9F8003037
:101464000233C9F80030256815F006051CD094F83D
:1014740043302268003318BF012392061FD5E118B8
:101484005A1C302081F84300224494F8451082F815
:101494004310023313E03046394604F119020123A4
:1014A400C047013007D00135E368D9F800209B1A02
:1014B4009D42F0DBDBE74FF0FF30BDE8F8833046B8
:1014C400394604F14302C0470130F4D02268D9F808
:1014D4000050E36802F00602042A08BF5D1B22697B
:1014E400A3680CBF25EAE57500259342C4BF9B1A87
:1014F400ED184FF00009A9450ADA3046394604F1DF
:101504001A020123C0470130D5D009F10109F2E7DD
:101514000020BDE8F88300002DE9FF410C46174682
:10152400227E6E2A984606460A9B01F1430100F08A
:10153400AF8012D8632A23D00AD8002A00F0BC80D6
:10154400582A40F0CB8084F84520DFF804E257E0C5
:10155400642A1ED0692A1CD0C0E0732A00F0B0802F
:1015640009D86F2A2ED0702A40F0B880226842F041
:10157400200222603FE0752A24D0782A3BD0ADE0D7
:101584001A68111D1960136884F8423004F1420589
:10159400A8E020681A6810F0800F02D0101D1860AF
:1015A40008E010F0400F02F10400186002D0B2F914
:1015B400003000E01368002B3EDA2D225B4284F8F1
:1015C400432039E020681A6810F0800F02D0101D03
:1015D400186007E010F0400F02F10400186001D019
:1015E400138800E01368227EDFF864E16F2A0CBFE1
:1015F40008220A221CE07822DFF858E184F845200A
:101604002268186812F0800F00F104051D6003D1F0
:10161400550601D5038800E00368D00744BF42F0B3
:10162400200222601BB9226822F0200222601022CC
:10163400002084F8430002E0DFF814E10A22656820
:10164400A560002DA2BF206820F00400206003B92B
:1016540065B10D46B3FBF2F002FB10331EF8033004
:1016640005F8013D03460028F4D100E00D46082AA0
:101674000BD12368DA0708D5236962689A42DEBF72
:10168400302305F8013C05F1FF35491B21612EE0AB
:1016940025681A68606915F0800F03D0151D1D6058
:1016A400136808E015F0400F02F104051D6013688B
:1016B40001D0188000E01860002323610D4616E075
:1016C4001A68111D1960156862682846002100F027
:1016D40043F808B1401B6060636804E004F142050C
:1016E40084F8422001232361002384F84330CDF899
:1016F40000803046214603AA3B46FFF797FE01309F
:1017040002D14FF0FF301FE0304639462A462369A4
:10171400C0470130F5D023689B0705D4E068039BDC
:101724009842B8BF18460FE00025E368039A9B1A55
:101734009D42F3DA3046394604F119020123C047C9
:101744000130DED00135F0E704B0BDE8F08100BF20
:10175400DF1A0008F01A000810B5C9B2024490421A
:10176400034606D01C788C4200F10100F7D11846DC
:1017740010BD002010BD814210B501EB020301D35E
:10178400421E0BE09842FBD28118D21AD34204D0F5
:1017940013F8014D01F8014DF8E710BD994204D04A
:1017A40011F8014B02F8014FF8E710BD30B50029DC
:1017B4003DD051F8042C0B1F1D49002AB8BF9B18BB
:1017C4000A680C4612B95A600B6030BD93420DD2C0
:1017D40019685818904201BF5A5852181A60426842
:1017E4005A60236030BD994203D80A4651680029E3
:1017F400F9D1146815199D420AD11B682344D018E5
:101804008842136013D10868034413604B680DE0E9
:1018140002D90C23036030BD1C681819884204BF28
:1018240008684968596004BF00191860536030BDE6
:101834001C01002070B5CC1C24F0030408340C2CCB
:1018440038BF0C24002C064603DA0C233360002036
:1018540070BD8C42F9D3204A136810461946A1B1D1
:101864000A68121B0ED40B2A03D90A608B188C50F9
:101874001FE08B420DBF5A684A685A60026018BF65
:101884000B4616E00B464968E9E7144D2B681BB973
:10189400304600F04BF828603046214600F046F808
:1018A400421C0346D1D0C51C25F0030585420AD14C
:1018B4001C6003F10B001A1D20F00700821A0AD0E5
:1018C4005142995070BD3046E91A00F02FF80130AA
:1018D400BBD02B46ECE770BD1C0100201801002092
:1018E400F8B5074615460E4621B91146BDE8F8403D
:1018F400FFF7A0BF1AB9FFF759FF2846F8BD00F05B
:1019040025F8A8420ED238462946FFF793FF04462D
:1019140050B131462A46FFF7F9FB38463146FFF706
:1019240045FF01E03046F8BD2046F8BD38B5064C09
:101934000023054608462360FFF7D6F9431C02D16D
:10194400236803B12B6038BD2401002051F8040C36
:101954000028BEBF091851F8043CC0180438704769
:101964000000000001020304010203040607080941
:10197400537461636B206672616D653A0A000000FE
:10198400205230203D2020253038580A0000000025
:10199400205231203D2020253038580A0000000014
:1019A400205232203D2020253038580A0000000003
:1019B400205233203D2020253038580A00000000F2
:1019C40020523132203D20253038580A00000000D2
:1019D400204C52203D2020253038580A00000000B9
:1019E400205043203D2020253038580A00000000B4
:1019F40020505352203D20253038580A0000000062
:101A04004653522F4641523A0A000000204346539F
:101A140052203D2020253038580A000020484653E3
:101A240052203D2020253038580A000020444653D7
:101A340052203D2020253038580A000020414653CA
:101A440052203D2020253038580A0000204D4D46B4
:101A54004152203D20253038580A0000204246419A
:101A640052203D2020253038580A00004D69736308
:101A74000A000000204C522F4558435F52455455EC
:101A8400524E3D20253038580A0000005B486172F0
:101A9400644661756C745D0A000000005B427573F6
:101AA4004661756C745D0A005B55736167654661D8
:101AB400756C745D0A000000000000000000000066
:101AC40001020304060708094300232D302B2000DC
:101AD400686C4C00656667454647003031323334E4
:101AE4003536373839414243444546003031323384
:0D1AF4003435363738396162636465660049
:101B04007856341280000020000000000024F40005
:101B140000000000000000000000000000000000C1
:101B240000000000000000000000000000000000B1
:101B3400CC1A0008000000000000000000000000B3
:101B44000000000000000000000000000000000091
:101B54000000000000000000000000000000000081
:101B64000000000000000000000000000000000071
:081B74001000002032547698A5
:04000005080001C925
:00000001FF
